:1009E600414C4C20534F55524345204F4646004CF0
:1009F6004F4144204F46460048454C4C4F204C4FF3
:100A0600414420574F524B004F4E2053554E004FF6
:0F0A16004E2057494E44004F4E2047524944004E
:090AC100120956D2817F057E0066
:100ACA00E4FDFCC3ED9FEE6480F8EC648098501559
:100ADA00E4FBFA0BBB00010AEB64644A70F50DBD36
:050AEA0000010C80DE9C
:010AEF0022E4
:10095600EF30E004D2B08002C2B0EF30E104D2B191
:100966008002C2B1EF30E204D2B28002C2B2EF30EE
:10097600E304D2B38002C2B3EF30E404D2B48002FF
:10098600C2B4EF30E504D2B58002C2B5EF30E6045A
:10099600D2B68002C2B6EF30E703D2B722C2B72280
:070C02007E00120ACA7F30D8
:080C0900C280120AC1C281225F
:050C43007F01020C0915
:100B1D00D2A1D2A0C2A5C2A4C2A3C2A2E4FD7F01EC
:100B2D008F0AA905E50AB40105E924808008E50AC4
:0B0B3D00B40207E924C0FF120C0922DB
:100B9E00E4FF120956C2807FC8120C027F32120C7B
:100BAE00027F6E120C027F38120C097F0C120C0998
:0A0BBE007F01120C097F06020C09EA
:080C3B00D280120AC1C281221D
:060A90007BFF7A0979FEEC
:060A96008B0A8A0B890C9B
:100A9C00E4F50DF50EAB0AAA0BA90C850E82850D9B
:100AAC0083120AF0FF600D120C3B050EE50E70E58B
:040ABC00050D80E1C3
:010AC0002213
:050C48007F1C020C09F5
:050C4D007F18020C09F4
:100BC800EF30E004D2B48002C2B4EF30E104D2B511
:100BD8008002C2B5EF30E204D2B68002C2B6EF306E
:080BE800E303D2B722C2B722D9
:070BF0007E00120ACA7F0318
:0B0BF700C280120BC8120AC4C2812287
:0A0C1D00E4FF120BF77F01020BF752
:0409A6008F14A905FC
:1009AA00E514B40112E92480FFF5157804A2E713CF
:1009BA00D8FBF516EF8016E514B4021FE92480F57A
:1009CA00157804A2E713D8FBF516E924C0540FF5ED
:0B09DA0017AF16120BF7AF17120BF748
:0109E50022EF
:100A2500E4FF120BC87FC8120BF07F32120BF07F68
:100A35006E120BF07F02120BF77F02120BF77F0885
:100A4500120BF7E4FF120BF77F0C120BF7E4FF1202
:070A55000BF77F06020BF70F
:020B4800AE07F6
:100B4A00EE540FF9EE54F0FFD2807804A2E713D8DE
:100B5A00FBFF120BC8120AC4C281AF01120BC8D222
:080B6A00817F05120ACAC28155
:010B72002260
:060B73008B0F8A108911AE
:100B7900E4F512F513AB0FAA10A91185138285129A
:100B890083120AF0FF600D120B480513E51370E597
:040B9900051280E1E0
:010B9D002235
:0A0C27007F01120BF77F0C020BF7A0
:0A0C31007F01120BF77F08020BF79A
:0E0A5C007FE87E03120A6A120C437FE87E03D5
:100A6A00E4FDFCC3ED9FEE6480F8EC6480985015B9
:100A7A00E4FBFA0BBB00010AEB64644A70F50DBD96
:050A8A0000010C80DEFC
:010A8F002244
:10080000120B9EC292C291C290C2A5C2A4C2A3C240
:10081000A2C2A1C2A020902E20912B209228C2A576
:10082000C2A4C2A3C2A2C2A1C2A0120B297BFF7A9A
:100830000979E6120A96E4FD7F02120B2D7BFF7AFE
:100840000979F502091330901C3091193092161273
:100850000B1D120A90E4FD7F02120B2D7BFF7A0A1A
:10086000790E02091330901C209119309216120B48
:100870001D120A90E4FD7F02120B2D7BFF7A0A798C
:100880000E02091330901C309119209216120B1D84
:10089000120A90E4FD7F02120B2D7BFF7A0A790E7B
:1008A00002091330901B209118209215120B1D1273
:1008B0000A90E4FD7F02120B2D7BFF7A0A790E80ED
:1008C00052209027309124309221D2A3D2A2C2A5E7
:1008D000C2A4C2A1C2A0120B29120A90E4FD7F0299
:1008E000120B2D7BFF7A0A7915802820902E3091EB
:1008F0002B209228D2A3D2A2C2A5C2A4C2A1C2A078
:10090000120B29120A90E4FD7F02120B2D7BFF7A55
:100910000A7915120A96120A5C020809309003023D
:100920000809309103020809209203020809D2A5A0
:10093000D2A4C2A3C2A2C2A1C2A0120B29120A90C1
:10094000E4FD7F02120B2D7BFF7A0A791D120A96B5
:06095000120A5C02080916
:03000000020C11DE
:0C0C1100787FE4F6D8FD7581170208001A
:100AF000BB010CE58229F582E5833AF583E02250BB
:100B000006E92582F8E622BBFE06E92582F8E22204
:0D0B1000E58229F582E5833AF583E493221E
:00000001FF
